{"abi":[{"type":"constructor","inputs":[{"name":"_admin","type":"address","internalType":"address"},{"name":"_initialTokens","type":"address[]","internalType":"address[]"}],"stateMutability":"nonpayable"},{"type":"receive","stateMutability":"payable"},{"type":"function","name":"acceptedTokens","inputs":[{"name":"","type":"address","internalType":"address"}],"outputs":[{"name":"","type":"bool","internalType":"bool"}],"stateMutability":"view"},{"type":"function","name":"addToken","inputs":[{"name":"token","type":"address","internalType":"address"}],"outputs":[],"stateMutability":"nonpayable"},{"type":"function","name":"admin","inputs":[],"outputs":[{"name":"","type":"address","internalType":"address"}],"stateMutability":"view"},{"type":"function","name":"getLock","inputs":[{"name":"stellarLoanId","type":"uint32","internalType":"uint32"}],"outputs":[{"name":"","type":"tuple","internalType":"struct PrismCollateralVault.CollateralLock","components":[{"name":"borrower","type":"address","internalType":"address"},{"name":"token","type":"address","internalType":"address"},{"name":"amount","type":"uint256","internalType":"uint256"},{"name":"stellarLoanId","type":"uint32","internalType":"uint32"},{"name":"state","type":"uint8","internalType":"enum PrismCollateralVault.LockState"},{"name":"lockedAt","type":"uint256","internalType":"uint256"},{"name":"stellarBorrower","type":"string","internalType":"string"}]}],"stateMutability":"view"},{"type":"function","name":"isTokenAccepted","inputs":[{"name":"token","type":"address","internalType":"address"}],"outputs":[{"name":"","type":"bool","internalType":"bool"}],"stateMutability":"view"},{"type":"function","name":"liquidate","inputs":[{"name":"stellarLoanId","type":"uint32","internalType":"uint32"},{"name":"to","type":"address","internalType":"address"}],"outputs":[],"stateMutability":"nonpayable"},{"type":"function","name":"lock","inputs":[{"name":"stellarLoanId","type":"uint32","internalType":"uint32"},{"name":"token","type":"address","internalType":"address"},{"name":"amount","type":"uint256","internalType":"uint256"},{"name":"stellarBorrower","type":"string","internalType":"string"}],"outputs":[],"stateMutability":"nonpayable"},{"type":"function","name":"lockETH","inputs":[{"name":"stellarLoanId","type":"uint32","internalType":"uint32"},{"name":"stellarBorrower","type":"string","internalType":"string"}],"outputs":[],"stateMutability":"payable"},{"type":"function","name":"pause","inputs":[],"outputs":[],"stateMutability":"nonpayable"},{"type":"function","name":"paused","inputs":[],"outputs":[{"name":"","type":"bool","internalType":"bool"}],"stateMutability":"view"},{"type":"function","name":"release","inputs":[{"name":"stellarLoanId","type":"uint32","internalType":"uint32"}],"outputs":[],"stateMutability":"nonpayable"},{"type":"function","name":"removeToken","inputs":[{"name":"token","type":"address","internalType":"address"}],"outputs":[],"stateMutability":"nonpayable"},{"type":"function","name":"unpause","inputs":[],"outputs":[],"stateMutability":"nonpayable"},{"type":"event","name":"CollateralLiquidated","inputs":[{"name":"stellarLoanId","type":"uint32","indexed":true,"internalType":"uint32"},{"name":"to","type":"address","indexed":true,"internalType":"address"},{"name":"token","type":"address","indexed":false,"internalType":"address"},{"name":"amount","type":"uint256","indexed":false,"internalType":"uint256"}],"anonymous":false},{"type":"event","name":"CollateralLocked","inputs":[{"name":"stellarLoanId","type":"uint32","indexed":true,"internalType":"uint32"},{"name":"borrower","type":"address","indexed":true,"internalType":"address"},{"name":"token","type":"address","indexed":true,"internalType":"address"},{"name":"amount","type":"uint256","indexed":false,"internalType":"uint256"},{"name":"stellarBorrower","type":"string","indexed":false,"internalType":"string"},{"name":"lockedAt","type":"uint256","indexed":false,"internalType":"uint256"}],"anonymous":false},{"type":"event","name":"CollateralReleased","inputs":[{"name":"stellarLoanId","type":"uint32","indexed":true,"internalType":"uint32"},{"name":"borrower","type":"address","indexed":true,"internalType":"address"},{"name":"token","type":"address","indexed":false,"internalType":"address"},{"name":"amount","type":"uint256","indexed":false,"internalType":"uint256"}],"anonymous":false},{"type":"event","name":"Paused","inputs":[{"name":"account","type":"address","indexed":false,"internalType":"address"}],"anonymous":false},{"type":"event","name":"TokenAdded","inputs":[{"name":"token","type":"address","indexed":true,"internalType":"address"}],"anonymous":false},{"type":"event","name":"TokenRemoved","inputs":[{"name":"token","type":"address","indexed":true,"internalType":"address"}],"anonymous":false},{"type":"event","name":"Unpaused","inputs":[{"name":"account","type":"address","indexed":false,"internalType":"address"}],"anonymous":false},{"type":"error","name":"ETHTransferFailed","inputs":[]},{"type":"error","name":"EnforcedPause","inputs":[]},{"type":"error","name":"ExpectedPause","inputs":[]},{"type":"error","name":"InvalidAddress","inputs":[]},{"type":"error","name":"LoanAlreadyExists","inputs":[{"name":"stellarLoanId","type":"uint32","internalType":"uint32"}]},{"type":"error","name":"LoanNotLocked","inputs":[{"name":"stellarLoanId","type":"uint32","internalType":"uint32"}]},{"type":"error","name":"NotAdmin","inputs":[]},{"type":"error","name":"ReentrancyGuardReentrantCall","inputs":[]},{"type":"error","name":"SafeERC20FailedOperation","inputs":[{"name":"token","type":"address","internalType":"address"}]},{"type":"error","name":"TokenNotAccepted","inputs":[{"name":"token","type":"address","internalType":"address"}]},{"type":"error","name":"ZeroAmount","inputs":[]}],"bytecode":{"object":"0x60a060405234801562000010575f80fd5b5060405162001826380380620018268339810160408190526200003391620001ba565b60017f9b779b17422d0df92223018b32b4d1fa46e071723d6817e2486d003becc55f00556001600160a01b0382166200007f5760405163e6c4247b60e01b815260040160405180910390fd5b6001600160a01b0382166080525f5b815181101562000181575f6001600160a01b0316828281518110620000b757620000b76200029e565b60200260200101516001600160a01b0316146200017857600160025f848481518110620000e857620000e86200029e565b60200260200101516001600160a01b03166001600160a01b031681526020019081526020015f205f6101000a81548160ff0219169083151502179055508181815181106200013a576200013a6200029e565b60200260200101516001600160a01b03167f784c8f4dbf0ffedd6e72c76501c545a70f8b203b30a26ce542bf92ba87c248a460405160405180910390a25b6001016200008e565b505050620002b2565b80516001600160a01b0381168114620001a1575f80fd5b919050565b634e487b7160e01b5f52604160045260245ffd5b5f8060408385031215620001cc575f80fd5b620001d7836200018a565b602084810151919350906001600160401b0380821115620001f6575f80fd5b818601915086601f8301126200020a575f80fd5b8151818111156200021f576200021f620001a6565b8060051b604051601f19603f83011681018181108582111715620002475762000247620001a6565b60405291825284820192508381018501918983111562000265575f80fd5b938501935b828510156200028e576200027e856200018a565b845293850193928501926200026a565b8096505050505050509250929050565b634e487b7160e01b5f52603260045260245ffd5b608051611531620002f55f395f81816102950152818161047d015281816105f601528181610869015281816108fa0152818161094b0152610a0601526115315ff3fe6080604052600436106100c2575f3560e01c80635fa7b5841161007c578063d48bfca711610057578063d48bfca714610227578063dda42b3714610246578063e84fb47614610265578063f851a44014610284575f80fd5b80635fa7b584146101c657806382dc4a05146101e55780638456cb5914610213575f80fd5b80630560bd9614610108578063198155721461013c5780633e5c4ecb146101685780633f4ba83a146101895780635af0dba71461019d5780635c975abb146101b0575f80fd5b366101045760405162461bcd60e51b815260206004820152600d60248201526c557365206c6f636b455448282960981b60448201526064015b60405180910390fd5b5f80fd5b348015610113575f80fd5b506101276101223660046110ec565b6102cf565b60405190151581526020015b60405180910390f35b348015610147575f80fd5b5061015b61015636600461111f565b610304565b604051610133919061118f565b348015610173575f80fd5b5061018761018236600461121e565b610472565b005b348015610194575f80fd5b506101876105eb565b6101876101ab366004611294565b61063e565b3480156101bb575f80fd5b505f5460ff16610127565b3480156101d1575f80fd5b506101876101e03660046110ec565b61085e565b3480156101f0575f80fd5b506101276101ff3660046110ec565b60026020525f908152604090205460ff1681565b34801561021e575f80fd5b506101876108ef565b348015610232575f80fd5b506101876102413660046110ec565b610940565b348015610251575f80fd5b5061018761026036600461111f565b6109fb565b348015610270575f80fd5b5061018761027f3660046112e3565b610b53565b34801561028f575f80fd5b506102b77f000000000000000000000000000000000000000000000000000000000000000081565b6040516001600160a01b039091168152602001610133565b5f6001600160a01b0382166102e657506001919050565b506001600160a01b03165f9081526002602052604090205460ff1690565b6103426040805160e0810182525f808252602082018190529181018290526060810182905290608082019081526020015f8152602001606081525090565b63ffffffff8281165f90815260016020818152604092839020835160e08101855281546001600160a01b0390811682529382015490931691830191909152600281015492820192909252600380830154938416606083015290926080840191600160201b90910460ff16908111156103bc576103bc611138565b60038111156103cd576103cd611138565b8152602001600482015481526020016005820180546103eb9061134d565b80601f01602080910402602001604051908101604052809291908181526020018280546104179061134d565b80156104625780601f1061043957610100808354040283529160200191610462565b820191905f5260205f20905b81548152906001019060200180831161044557829003601f168201915b5050505050815250509050919050565b336001600160a01b037f000000000000000000000000000000000000000000000000000000000000000016146104bb57604051637bfa4b9f60e01b815260040160405180910390fd5b6104c3610de3565b6001600160a01b0381166104ea5760405163e6c4247b60e01b815260040160405180910390fd5b63ffffffff82165f90815260016020819052604090912090600382810154600160201b900460ff169081111561052257610522611138565b14610548576040516364546a9360e01b815263ffffffff841660048201526024016100fb565b6001810154600282015460038301805464ff0000000019166403000000001790556001600160a01b0390911690610580828583610dfe565b604080516001600160a01b0384811682526020820184905286169163ffffffff8816917ff4fe48a0860fcd711756fba51cb84b2d0735363bf7c645632e55e7190b46e6dd910160405180910390a35050506105e760015f805160206114dc83398151915255565b5050565b336001600160a01b037f0000000000000000000000000000000000000000000000000000000000000000161461063457604051637bfa4b9f60e01b815260040160405180910390fd5b61063c610e96565b565b610646610de3565b61064e610ee7565b345f0361066e57604051631f2a200560e01b815260040160405180910390fd5b5f63ffffffff84165f908152600160205260409020600390810154600160201b900460ff16908111156106a3576106a3611138565b146106c95760405163bf8484b560e01b815263ffffffff841660048201526024016100fb565b6040805160e0810182523381525f6020820152349181019190915263ffffffff84166060820152608081016001815260200142815260200183838080601f0160208091040260200160405190810160405280939291908181526020018383808284375f92018290525093909452505063ffffffff868116825260016020818152604093849020865181546001600160a01b03199081166001600160a01b03928316178355928801519382018054909316931692909217905591840151600283015560608401516003808401805463ffffffff19811693909416928317815560808701519495509264ffffffffff191690911790600160201b9084908111156107d3576107d3611138565b021790555060a0820151600482015560c082015160058201906107f690826113dd565b50506040515f9150339063ffffffff8616907fd728dafd18936e772d08447587982a550d6dde56094634dbfcf6c184115682d99061083b90349088908890429061149d565b60405180910390a461085960015f805160206114dc83398151915255565b505050565b336001600160a01b037f000000000000000000000000000000000000000000000000000000000000000016146108a757604051637bfa4b9f60e01b815260040160405180910390fd5b6001600160a01b0381165f81815260026020526040808220805460ff19169055517f4c910b69fe65a61f7531b9c5042b2329ca7179c77290aa7e2eb3afa3c8511fd39190a250565b336001600160a01b037f0000000000000000000000000000000000000000000000000000000000000000161461093857604051637bfa4b9f60e01b815260040160405180910390fd5b61063c610f0a565b336001600160a01b037f0000000000000000000000000000000000000000000000000000000000000000161461098957604051637bfa4b9f60e01b815260040160405180910390fd5b6001600160a01b0381166109b05760405163e6c4247b60e01b815260040160405180910390fd5b6001600160a01b0381165f81815260026020526040808220805460ff19166001179055517f784c8f4dbf0ffedd6e72c76501c545a70f8b203b30a26ce542bf92ba87c248a49190a250565b336001600160a01b037f00000000000000000000000000000000000000000000000000000000000000001614610a4457604051637bfa4b9f60e01b815260040160405180910390fd5b610a4c610de3565b63ffffffff81165f90815260016020819052604090912090600382810154600160201b900460ff1690811115610a8457610a84611138565b14610aaa576040516364546a9360e01b815263ffffffff831660048201526024016100fb565b80546001820154600283015460038401805464ff0000000019166402000000001790556001600160a01b039283169290911690610ae8828483610dfe565b604080516001600160a01b0384811682526020820184905285169163ffffffff8816917f8199709617a96dd1b0ffecf95ae3f9d2bdf06bee1eb10c3469db4e7934d770ff910160405180910390a350505050610b5060015f805160206114dc83398151915255565b50565b610b5b610de3565b610b63610ee7565b6001600160a01b0384165f9081526002602052604090205460ff16610ba65760405163f01157c360e01b81526001600160a01b03851660048201526024016100fb565b825f03610bc657604051631f2a200560e01b815260040160405180910390fd5b5f63ffffffff86165f908152600160205260409020600390810154600160201b900460ff1690811115610bfb57610bfb611138565b14610c215760405163bf8484b560e01b815263ffffffff861660048201526024016100fb565b6040805160e0810182523381526001600160a01b038616602082015290810184905263ffffffff86166060820152608081016001815260200142815260200183838080601f0160208091040260200160405190810160405280939291908181526020018383808284375f92018290525093909452505063ffffffff888116825260016020818152604093849020865181546001600160a01b03199081166001600160a01b03928316178355928801519382018054909316931692909217905591840151600283015560608401516003808401805463ffffffff19811693909416928317815560808701519495509264ffffffffff191690911790600160201b908490811115610d3257610d32611138565b021790555060a0820151600482015560c08201516005820190610d5590826113dd565b50610d6e9150506001600160a01b038516333086610f46565b836001600160a01b0316336001600160a01b03168663ffffffff167fd728dafd18936e772d08447587982a550d6dde56094634dbfcf6c184115682d986868642604051610dbe949392919061149d565b60405180910390a4610ddc60015f805160206114dc83398151915255565b5050505050565b610deb610f7c565b60025f805160206114dc83398151915255565b6001600160a01b038316610e82575f826001600160a01b0316826040515f6040518083038185875af1925050503d805f8114610e55576040519150601f19603f3d011682016040523d82523d5f602084013e610e5a565b606091505b5050905080610e7c5760405163b12d13eb60e01b815260040160405180910390fd5b50505050565b6108596001600160a01b0384168383610fab565b610e9e610fe0565b5f805460ff191690557f5db9ee0a495bf2e6ff9c91a7834c1ba4fdd244a5e8aa4e537bd38aeae4b073aa335b6040516001600160a01b03909116815260200160405180910390a1565b5f5460ff161561063c5760405163d93c066560e01b815260040160405180910390fd5b610f12610ee7565b5f805460ff191660011790557f62e78cea01bee320cd4e420270b5ea74000d11b0c9f74754ebdbfc544b05a258610eca3390565b610f54848484846001611002565b610e7c57604051635274afe760e01b81526001600160a01b03851660048201526024016100fb565b5f805160206114dc8339815191525460020361063c57604051633ee5aeb560e01b815260040160405180910390fd5b610fb8838383600161106f565b61085957604051635274afe760e01b81526001600160a01b03841660048201526024016100fb565b5f5460ff1661063c57604051638dfc202b60e01b815260040160405180910390fd5b6040516323b872dd60e01b5f8181526001600160a01b038781166004528616602452604485905291602083606481808c5af1925060015f5114831661105e578383151615611052573d5f823e3d81fd5b5f883b113d1516831692505b604052505f60605295945050505050565b60405163a9059cbb60e01b5f8181526001600160a01b038616600452602485905291602083604481808b5af1925060015f511483166110c55783831516156110b9573d5f823e3d81fd5b5f873b113d1516831692505b60405250949350505050565b80356001600160a01b03811681146110e7575f80fd5b919050565b5f602082840312156110fc575f80fd5b611105826110d1565b9392505050565b803563ffffffff811681146110e7575f80fd5b5f6020828403121561112f575f80fd5b6111058261110c565b634e487b7160e01b5f52602160045260245ffd5b5f81518084525f5b8181101561117057602081850181015186830182015201611154565b505f602082860101526020601f19601f83011685010191505092915050565b602081525f60018060a01b03808451166020840152806020850151166040840152506040830151606083015263ffffffff60608401511660808301526080830151600481106111ec57634e487b7160e01b5f52602160045260245ffd5b8060a08401525060a083015160c083015260c083015160e08084015261121661010084018261114c565b949350505050565b5f806040838503121561122f575f80fd5b6112388361110c565b9150611246602084016110d1565b90509250929050565b5f8083601f84011261125f575f80fd5b50813567ffffffffffffffff811115611276575f80fd5b60208301915083602082850101111561128d575f80fd5b9250929050565b5f805f604084860312156112a6575f80fd5b6112af8461110c565b9250602084013567ffffffffffffffff8111156112ca575f80fd5b6112d68682870161124f565b9497909650939450505050565b5f805f805f608086880312156112f7575f80fd5b6113008661110c565b945061130e602087016110d1565b935060408601359250606086013567ffffffffffffffff811115611330575f80fd5b61133c8882890161124f565b969995985093965092949392505050565b600181811c9082168061136157607f821691505b60208210810361137f57634e487b7160e01b5f52602260045260245ffd5b50919050565b634e487b7160e01b5f52604160045260245ffd5b601f82111561085957805f5260205f20601f840160051c810160208510156113be5750805b601f840160051c820191505b81811015610ddc575f81556001016113ca565b815167ffffffffffffffff8111156113f7576113f7611385565b61140b81611405845461134d565b84611399565b602080601f83116001811461143e575f84156114275750858301515b5f19600386901b1c1916600185901b178555611495565b5f85815260208120601f198616915b8281101561146c5788860151825594840194600190910190840161144d565b508582101561148957878501515f19600388901b60f8161c191681555b505060018460011b0185555b505050505050565b84815260606020820152826060820152828460808301375f608084830101525f6080601f19601f86011683010190508260408301529594505050505056fe9b779b17422d0df92223018b32b4d1fa46e071723d6817e2486d003becc55f00a2646970667358221220563142cbfd3b706794d90c0fb74022039ff9de3c82eeb80d67218a405f499f6464736f6c63430008180033","linkReferences":{}},"methodIdentifiers":{"acceptedTokens(address)":"82dc4a05","addToken(address)":"d48bfca7","admin()":"f851a440","getLock(uint32)":"19815572","isTokenAccepted(address)":"0560bd96","liquidate(uint32,address)":"3e5c4ecb","lock(uint32,address,uint256,string)":"e84fb476","lockETH(uint32,string)":"5af0dba7","pause()":"8456cb59","paused()":"5c975abb","release(uint32)":"dda42b37","removeToken(address)":"5fa7b584","unpause()":"3f4ba83a"},"id":33}